{
  "_format": "hh-sol-artifact-1",
  "contractName": "POAPCredential",
  "sourceName": "contracts/POAPCredential.sol",
  "abi": [
    {
      "inputs": [],
      "stateMutability": "nonpayable",
      "type": "constructor"
    },
    {
      "inputs": [
        {
          "internalType": "address",
          "name": "sender",
          "type": "address"
        },
        {
          "internalType": "uint256",
          "name": "tokenId",
          "type": "uint256"
        },
        {
          "internalType": "address",
          "name": "owner",
          "type": "address"
        }
      ],
      "name": "ERC721IncorrectOwner",
      "type": "error"
    },
    {
      "inputs": [
        {
          "internalType": "address",
          "name": "operator",
          "type": "address"
        },
        {
          "internalType": "uint256",
          "name": "tokenId",
          "type": "uint256"
        }
      ],
      "name": "ERC721InsufficientApproval",
      "type": "error"
    },
    {
      "inputs": [
        {
          "internalType": "address",
          "name": "approver",
          "type": "address"
        }
      ],
      "name": "ERC721InvalidApprover",
      "type": "error"
    },
    {
      "inputs": [
        {
          "internalType": "address",
          "name": "operator",
          "type": "address"
        }
      ],
      "name": "ERC721InvalidOperator",
      "type": "error"
    },
    {
      "inputs": [
        {
          "internalType": "address",
          "name": "owner",
          "type": "address"
        }
      ],
      "name": "ERC721InvalidOwner",
      "type": "error"
    },
    {
      "inputs": [
        {
          "internalType": "address",
          "name": "receiver",
          "type": "address"
        }
      ],
      "name": "ERC721InvalidReceiver",
      "type": "error"
    },
    {
      "inputs": [
        {
          "internalType": "address",
          "name": "sender",
          "type": "address"
        }
      ],
      "name": "ERC721InvalidSender",
      "type": "error"
    },
    {
      "inputs": [
        {
          "internalType": "uint256",
          "name": "tokenId",
          "type": "uint256"
        }
      ],
      "name": "ERC721NonexistentToken",
      "type": "error"
    },
    {
      "inputs": [
        {
          "internalType": "address",
          "name": "owner",
          "type": "address"
        }
      ],
      "name": "OwnableInvalidOwner",
      "type": "error"
    },
    {
      "inputs": [
        {
          "internalType": "address",
          "name": "account",
          "type": "address"
        }
      ],
      "name": "OwnableUnauthorizedAccount",
      "type": "error"
    },
    {
      "anonymous": false,
      "inputs": [
        {
          "indexed": true,
          "internalType": "address",
          "name": "owner",
          "type": "address"
        },
        {
          "indexed": true,
          "internalType": "address",
          "name": "approved",
          "type": "address"
        },
        {
          "indexed": true,
          "internalType": "uint256",
          "name": "tokenId",
          "type": "uint256"
        }
      ],
      "name": "Approval",
      "type": "event"
    },
    {
      "anonymous": false,
      "inputs": [
        {
          "indexed": true,
          "internalType": "address",
          "name": "owner",
          "type": "address"
        },
        {
          "indexed": true,
          "internalType": "address",
          "name": "operator",
          "type": "address"
        },
        {
          "indexed": false,
          "internalType": "bool",
          "name": "approved",
          "type": "bool"
        }
      ],
      "name": "ApprovalForAll",
      "type": "event"
    },
    {
      "anonymous": false,
      "inputs": [
        {
          "indexed": true,
          "internalType": "uint256",
          "name": "tokenId",
          "type": "uint256"
        },
        {
          "indexed": true,
          "internalType": "address",
          "name": "student",
          "type": "address"
        },
        {
          "indexed": true,
          "internalType": "bytes32",
          "name": "eventHash",
          "type": "bytes32"
        },
        {
          "indexed": false,
          "internalType": "string",
          "name": "reason",
          "type": "string"
        }
      ],
      "name": "AttendanceRevoked",
      "type": "event"
    },
    {
      "anonymous": false,
      "inputs": [
        {
          "indexed": true,
          "internalType": "uint256",
          "name": "tokenId",
          "type": "uint256"
        },
        {
          "indexed": false,
          "internalType": "uint8",
          "name": "oldScore",
          "type": "uint8"
        },
        {
          "indexed": false,
          "internalType": "uint8",
          "name": "newScore",
          "type": "uint8"
        }
      ],
      "name": "AttendanceScoreUpdated",
      "type": "event"
    },
    {
      "anonymous": false,
      "inputs": [
        {
          "indexed": true,
          "internalType": "address",
          "name": "previousOwner",
          "type": "address"
        },
        {
          "indexed": true,
          "internalType": "address",
          "name": "newOwner",
          "type": "address"
        }
      ],
      "name": "OwnershipTransferred",
      "type": "event"
    },
    {
      "anonymous": false,
      "inputs": [
        {
          "indexed": true,
          "internalType": "uint256",
          "name": "tokenId",
          "type": "uint256"
        },
        {
          "indexed": true,
          "internalType": "address",
          "name": "student",
          "type": "address"
        },
        {
          "indexed": true,
          "internalType": "bytes32",
          "name": "eventHash",
          "type": "bytes32"
        },
        {
          "indexed": false,
          "internalType": "uint256",
          "name": "checkInTime",
          "type": "uint256"
        },
        {
          "indexed": false,
          "internalType": "string",
          "name": "geoLocation",
          "type": "string"
        },
        {
          "indexed": false,
          "internalType": "uint8",
          "name": "attendanceScore",
          "type": "uint8"
        }
      ],
      "name": "POAPMinted",
      "type": "event"
    },
    {
      "anonymous": false,
      "inputs": [
        {
          "indexed": true,
          "internalType": "address",
          "name": "from",
          "type": "address"
        },
        {
          "indexed": true,
          "internalType": "address",
          "name": "to",
          "type": "address"
        },
        {
          "indexed": true,
          "internalType": "uint256",
          "name": "tokenId",
          "type": "uint256"
        }
      ],
      "name": "Transfer",
      "type": "event"
    },
    {
      "inputs": [
        {
          "internalType": "address",
          "name": "to",
          "type": "address"
        },
        {
          "internalType": "uint256",
          "name": "tokenId",
          "type": "uint256"
        }
      ],
      "name": "approve",
      "outputs": [],
      "stateMutability": "nonpayable",
      "type": "function"
    },
    {
      "inputs": [
        {
          "internalType": "uint256",
          "name": "",
          "type": "uint256"
        }
      ],
      "name": "attendanceRecords",
      "outputs": [
        {
          "internalType": "bytes32",
          "name": "eventHash",
          "type": "bytes32"
        },
        {
          "internalType": "uint256",
          "name": "checkInTime",
          "type": "uint256"
        },
        {
          "internalType": "string",
          "name": "geoLocation",
          "type": "string"
        },
        {
          "internalType": "bool",
          "name": "isValid",
          "type": "bool"
        },
        {
          "internalType": "uint8",
          "name": "attendanceScore",
          "type": "uint8"
        }
      ],
      "stateMutability": "view",
      "type": "function"
    },
    {
      "inputs": [
        {
          "internalType": "address",
          "name": "owner",
          "type": "address"
        }
      ],
      "name": "balanceOf",
      "outputs": [
        {
          "internalType": "uint256",
          "name": "",
          "type": "uint256"
        }
      ],
      "stateMutability": "view",
      "type": "function"
    },
    {
      "inputs": [
        {
          "internalType": "bytes32",
          "name": "",
          "type": "bytes32"
        }
      ],
      "name": "eventAttendeeCount",
      "outputs": [
        {
          "internalType": "uint256",
          "name": "",
          "type": "uint256"
        }
      ],
      "stateMutability": "view",
      "type": "function"
    },
    {
      "inputs": [
        {
          "internalType": "uint256",
          "name": "tokenId",
          "type": "uint256"
        }
      ],
      "name": "getApproved",
      "outputs": [
        {
          "internalType": "address",
          "name": "",
          "type": "address"
        }
      ],
      "stateMutability": "view",
      "type": "function"
    },
    {
      "inputs": [
        {
          "internalType": "uint256",
          "name": "tokenId",
          "type": "uint256"
        }
      ],
      "name": "getAttendanceRecord",
      "outputs": [
        {
          "internalType": "bytes32",
          "name": "eventHash",
          "type": "bytes32"
        },
        {
          "internalType": "uint256",
          "name": "checkInTime",
          "type": "uint256"
        },
        {
          "internalType": "string",
          "name": "geoLocation",
          "type": "string"
        },
        {
          "internalType": "bool",
          "name": "isValid",
          "type": "bool"
        },
        {
          "internalType": "uint8",
          "name": "attendanceScore",
          "type": "uint8"
        }
      ],
      "stateMutability": "view",
      "type": "function"
    },
    {
      "inputs": [],
      "name": "getCurrentTokenId",
      "outputs": [
        {
          "internalType": "uint256",
          "name": "",
          "type": "uint256"
        }
      ],
      "stateMutability": "view",
      "type": "function"
    },
    {
      "inputs": [
        {
          "internalType": "bytes32",
          "name": "eventHash",
          "type": "bytes32"
        }
      ],
      "name": "getEventAttendeeCount",
      "outputs": [
        {
          "internalType": "uint256",
          "name": "",
          "type": "uint256"
        }
      ],
      "stateMutability": "view",
      "type": "function"
    },
    {
      "inputs": [
        {
          "internalType": "address",
          "name": "student",
          "type": "address"
        }
      ],
      "name": "getStudentAttendance",
      "outputs": [
        {
          "internalType": "bytes32[]",
          "name": "",
          "type": "bytes32[]"
        }
      ],
      "stateMutability": "view",
      "type": "function"
    },
    {
      "inputs": [
        {
          "internalType": "address",
          "name": "",
          "type": "address"
        },
        {
          "internalType": "bytes32",
          "name": "",
          "type": "bytes32"
        }
      ],
      "name": "hasAttended",
      "outputs": [
        {
          "internalType": "bool",
          "name": "",
          "type": "bool"
        }
      ],
      "stateMutability": "view",
      "type": "function"
    },
    {
      "inputs": [
        {
          "internalType": "address",
          "name": "owner",
          "type": "address"
        },
        {
          "internalType": "address",
          "name": "operator",
          "type": "address"
        }
      ],
      "name": "isApprovedForAll",
      "outputs": [
        {
          "internalType": "bool",
          "name": "",
          "type": "bool"
        }
      ],
      "stateMutability": "view",
      "type": "function"
    },
    {
      "inputs": [
        {
          "internalType": "uint256",
          "name": "tokenId",
          "type": "uint256"
        }
      ],
      "name": "isAttendanceValid",
      "outputs": [
        {
          "internalType": "bool",
          "name": "",
          "type": "bool"
        }
      ],
      "stateMutability": "view",
      "type": "function"
    },
    {
      "inputs": [
        {
          "internalType": "address",
          "name": "studentWallet",
          "type": "address"
        },
        {
          "internalType": "bytes32",
          "name": "eventHash",
          "type": "bytes32"
        },
        {
          "internalType": "string",
          "name": "geoLocation",
          "type": "string"
        }
      ],
      "name": "mintPOAP",
      "outputs": [
        {
          "internalType": "uint256",
          "name": "",
          "type": "uint256"
        }
      ],
      "stateMutability": "nonpayable",
      "type": "function"
    },
    {
      "inputs": [],
      "name": "name",
      "outputs": [
        {
          "internalType": "string",
          "name": "",
          "type": "string"
        }
      ],
      "stateMutability": "view",
      "type": "function"
    },
    {
      "inputs": [],
      "name": "owner",
      "outputs": [
        {
          "internalType": "address",
          "name": "",
          "type": "address"
        }
      ],
      "stateMutability": "view",
      "type": "function"
    },
    {
      "inputs": [
        {
          "internalType": "uint256",
          "name": "tokenId",
          "type": "uint256"
        }
      ],
      "name": "ownerOf",
      "outputs": [
        {
          "internalType": "address",
          "name": "",
          "type": "address"
        }
      ],
      "stateMutability": "view",
      "type": "function"
    },
    {
      "inputs": [],
      "name": "renounceOwnership",
      "outputs": [],
      "stateMutability": "nonpayable",
      "type": "function"
    },
    {
      "inputs": [
        {
          "internalType": "uint256",
          "name": "tokenId",
          "type": "uint256"
        }
      ],
      "name": "revokeAttendance",
      "outputs": [],
      "stateMutability": "nonpayable",
      "type": "function"
    },
    {
      "inputs": [
        {
          "internalType": "address",
          "name": "from",
          "type": "address"
        },
        {
          "internalType": "address",
          "name": "to",
          "type": "address"
        },
        {
          "internalType": "uint256",
          "name": "tokenId",
          "type": "uint256"
        }
      ],
      "name": "safeTransferFrom",
      "outputs": [],
      "stateMutability": "nonpayable",
      "type": "function"
    },
    {
      "inputs": [
        {
          "internalType": "address",
          "name": "",
          "type": "address"
        },
        {
          "internalType": "address",
          "name": "",
          "type": "address"
        },
        {
          "internalType": "uint256",
          "name": "",
          "type": "uint256"
        },
        {
          "internalType": "bytes",
          "name": "",
          "type": "bytes"
        }
      ],
      "name": "safeTransferFrom",
      "outputs": [],
      "stateMutability": "pure",
      "type": "function"
    },
    {
      "inputs": [
        {
          "internalType": "address",
          "name": "operator",
          "type": "address"
        },
        {
          "internalType": "bool",
          "name": "approved",
          "type": "bool"
        }
      ],
      "name": "setApprovalForAll",
      "outputs": [],
      "stateMutability": "nonpayable",
      "type": "function"
    },
    {
      "inputs": [
        {
          "internalType": "address",
          "name": "",
          "type": "address"
        },
        {
          "internalType": "uint256",
          "name": "",
          "type": "uint256"
        }
      ],
      "name": "studentAttendance",
      "outputs": [
        {
          "internalType": "bytes32",
          "name": "",
          "type": "bytes32"
        }
      ],
      "stateMutability": "view",
      "type": "function"
    },
    {
      "inputs": [
        {
          "internalType": "bytes4",
          "name": "interfaceId",
          "type": "bytes4"
        }
      ],
      "name": "supportsInterface",
      "outputs": [
        {
          "internalType": "bool",
          "name": "",
          "type": "bool"
        }
      ],
      "stateMutability": "view",
      "type": "function"
    },
    {
      "inputs": [],
      "name": "symbol",
      "outputs": [
        {
          "internalType": "string",
          "name": "",
          "type": "string"
        }
      ],
      "stateMutability": "view",
      "type": "function"
    },
    {
      "inputs": [
        {
          "internalType": "uint256",
          "name": "tokenId",
          "type": "uint256"
        }
      ],
      "name": "tokenURI",
      "outputs": [
        {
          "internalType": "string",
          "name": "",
          "type": "string"
        }
      ],
      "stateMutability": "view",
      "type": "function"
    },
    {
      "inputs": [
        {
          "internalType": "address",
          "name": "",
          "type": "address"
        },
        {
          "internalType": "address",
          "name": "",
          "type": "address"
        },
        {
          "internalType": "uint256",
          "name": "",
          "type": "uint256"
        }
      ],
      "name": "transferFrom",
      "outputs": [],
      "stateMutability": "pure",
      "type": "function"
    },
    {
      "inputs": [
        {
          "internalType": "address",
          "name": "newOwner",
          "type": "address"
        }
      ],
      "name": "transferOwnership",
      "outputs": [],
      "stateMutability": "nonpayable",
      "type": "function"
    },
    {
      "inputs": [
        {
          "internalType": "uint256",
          "name": "tokenId",
          "type": "uint256"
        },
        {
          "internalType": "uint8",
          "name": "newScore",
          "type": "uint8"
        }
      ],
      "name": "updateAttendanceScore",
      "outputs": [],
      "stateMutability": "nonpayable",
      "type": "function"
    }
  ],
  "bytecode": "0x60806040523480156200001157600080fd5b50336040518060400160405280601581526020017f4576656e7420417474656e64616e636520504f415000000000000000000000008152506040518060400160405280600481526020017f504f41500000000000000000000000000000000000000000000000000000000081525081600090816200009091906200047a565b508060019081620000a291906200047a565b505050600073ffffffffffffffffffffffffffffffffffffffff168173ffffffffffffffffffffffffffffffffffffffff16036200011a5760006040517f1e4fbdf7000000000000000000000000000000000000000000000000000000008152600401620001119190620005a6565b60405180910390fd5b6200012b816200013a60201b60201c565b506000600781905550620005c3565b6000600660009054906101000a900473ffffffffffffffffffffffffffffffffffffffff16905081600660006101000a81548173ffffffffffffffffffffffffffffffffffffffff021916908373ffffffffffffffffffffffffffffffffffffffff1602179055508173ffffffffffffffffffffffffffffffffffffffff168173ffffffffffffffffffffffffffffffffffffffff167f8be0079c531659141344cd1fd0a4f28419497f9722a3daafe3b4186f6b6457e060405160405180910390a35050565b600081519050919050565b7f4e487b7100000000000000000000000000000000000000000000000000000000600052604160045260246000fd5b7f4e487b7100000000000000000000000000000000000000000000000000000000600052602260045260246000fd5b600060028204905060018216806200028257607f821691505b6020821081036200029857620002976200023a565b5b50919050565b60008190508160005260206000209050919050565b60006020601f8301049050919050565b600082821b905092915050565b600060088302620003027fffffffffffffffffffffffffffffffffffffffffffffffffffffffffffffffff82620002c3565b6200030e8683620002c3565b95508019841693508086168417925050509392505050565b6000819050919050565b6000819050919050565b60006200035b620003556200034f8462000326565b62000330565b62000326565b9050919050565b6000819050919050565b62000377836200033a565b6200038f620003868262000362565b848454620002d0565b825550505050565b600090565b620003a662000397565b620003b38184846200036c565b505050565b5b81811015620003db57620003cf6000826200039c565b600181019050620003b9565b5050565b601f8211156200042a57620003f4816200029e565b620003ff84620002b3565b810160208510156200040f578190505b620004276200041e85620002b3565b830182620003b8565b50505b505050565b600082821c905092915050565b60006200044f600019846008026200042f565b1980831691505092915050565b60006200046a83836200043c565b9150826002028217905092915050565b620004858262000200565b67ffffffffffffffff811115620004a157620004a06200020b565b5b620004ad825462000269565b620004ba828285620003df565b600060209050601f831160018114620004f25760008415620004dd578287015190505b620004e985826200045c565b86555062000559565b601f19841662000502866200029e565b60005b828110156200052c5784890151825560018201915060208501945060208101905062000505565b868310156200054c578489015162000548601f8916826200043c565b8355505b6001600288020188555050505b505050505050565b600073ffffffffffffffffffffffffffffffffffffffff82169050919050565b60006200058e8262000561565b9050919050565b620005a08162000581565b82525050565b6000602082019050620005bd600083018462000595565b92915050565b613b5580620005d36000396000f3fe608060405234801561001057600080fd5b50600436106101c45760003560e01c806374f5922b116100f9578063c0fa357a11610097578063e985e9c511610071578063e985e9c51461056b578063ea0890661461059b578063f2fde38b146105b7578063fafd4b76146105d3576101c4565b8063c0fa357a146104ef578063c72030281461050b578063c87b56dd1461053b576101c4565b806395d89b41116100d357806395d89b4114610469578063a22cb46514610487578063b88d4fde146104a3578063bf174e0f146104bf576101c4565b806374f5922b146103eb5780638ab8d7551461041b5780638da5cb5b1461044b576101c4565b806342842e0e11610166578063623e480e11610140578063623e480e146103515780636352211e1461038157806370a08231146103b1578063715018a6146103e1576101c4565b806342842e0e146102e357806356189236146102ff5780635763c1841461031d576101c4565b8063095ea7b3116101a2578063095ea7b31461024757806314e1bf021461026357806318a14c751461029357806323b872dd146102c7576101c4565b806301ffc9a7146101c957806306fdde03146101f9578063081812fc14610217575b600080fd5b6101e360048036038101906101de9190612702565b610603565b6040516101f0919061274a565b60405180910390f35b6102016106e5565b60405161020e91906127f5565b60405180910390f35b610231600480360381019061022c919061284d565b610777565b60405161023e91906128bb565b60405180910390f35b610261600480360381019061025c9190612902565b610793565b005b61027d60048036038101906102789190612942565b6107a9565b60405161028a9190612a37565b60405180910390f35b6102ad60048036038101906102a8919061284d565b610840565b6040516102be959493929190612a93565b60405180910390f35b6102e160048036038101906102dc9190612aed565b6109ec565b005b6102fd60048036038101906102f89190612aed565b610a27565b005b610307610a47565b6040516103149190612b40565b60405180910390f35b6103376004803603810190610332919061284d565b610a51565b604051610348959493929190612a93565b60405180910390f35b61036b60048036038101906103669190612902565b610b29565b6040516103789190612b5b565b60405180910390f35b61039b6004803603810190610396919061284d565b610b5a565b6040516103a891906128bb565b60405180910390f35b6103cb60048036038101906103c69190612942565b610b6c565b6040516103d89190612b40565b60405180910390f35b6103e9610c26565b005b61040560048036038101906104009190612ba2565b610c3a565b6040516104129190612b40565b60405180910390f35b61043560048036038101906104309190612d04565b610c52565b6040516104429190612b40565b60405180910390f35b610453610f9e565b60405161046091906128bb565b60405180910390f35b610471610fc8565b60405161047e91906127f5565b60405180910390f35b6104a1600480360381019061049c9190612d9f565b61105a565b005b6104bd60048036038101906104b89190612e80565b611070565b005b6104d960048036038101906104d49190612ba2565b6110ab565b6040516104e69190612b40565b60405180910390f35b61050960048036038101906105049190612f2f565b6110c8565b005b61052560048036038101906105209190612f6f565b611224565b604051610532919061274a565b60405180910390f35b6105556004803603810190610550919061284d565b611253565b60405161056291906127f5565b60405180910390f35b61058560048036038101906105809190612faf565b611322565b604051610592919061274a565b60405180910390f35b6105b560048036038101906105b0919061284d565b6113b6565b005b6105d160048036038101906105cc9190612942565b611542565b005b6105ed60048036038101906105e8919061284d565b6115c8565b6040516105fa919061274a565b60405180910390f35b60007f80ac58cd000000000000000000000000000000000000000000000000000000007bffffffffffffffffffffffffffffffffffffffffffffffffffffffff1916827bffffffffffffffffffffffffffffffffffffffffffffffffffffffff191614806106ce57507f5b5e139f000000000000000000000000000000000000000000000000000000007bffffffffffffffffffffffffffffffffffffffffffffffffffffffff1916827bffffffffffffffffffffffffffffffffffffffffffffffffffffffff1916145b806106de57506106dd8261166b565b5b9050919050565b6060600080546106f49061301e565b80601f01602080910402602001604051908101604052809291908181526020018280546107209061301e565b801561076d5780601f106107425761010080835404028352916020019161076d565b820191906000526020600020905b81548152906001019060200180831161075057829003601f168201915b5050505050905090565b6000610782826116d5565b5061078c8261175d565b9050919050565b6107a582826107a061179a565b6117a2565b5050565b6060600960008373ffffffffffffffffffffffffffffffffffffffff1673ffffffffffffffffffffffffffffffffffffffff16815260200190815260200160002080548060200260200160405190810160405280929190818152602001828054801561083457602002820191906000526020600020905b815481526020019060010190808311610820575b50505050509050919050565b6000806060600080600073ffffffffffffffffffffffffffffffffffffffff16610869876117b4565b73ffffffffffffffffffffffffffffffffffffffff16036108bf576040517f08c379a00000000000000000000000000000000000000000000000000000000081526004016108b69061309b565b60405180910390fd5b6000600860008881526020019081526020016000206040518060a001604052908160008201548152602001600182015481526020016002820180546109039061301e565b80601f016020809104026020016040519081016040528092919081815260200182805461092f9061301e565b801561097c5780601f106109515761010080835404028352916020019161097c565b820191906000526020600020905b81548152906001019060200180831161095f57829003601f168201915b505050505081526020016003820160009054906101000a900460ff161515151581526020016003820160019054906101000a900460ff1660ff1660ff1681525050905080600001518160200151826040015183606001518460800151955095509550955095505091939590929450565b6040517f08c379a0000000000000000000000000000000000000000000000000000000008152600401610a1e9061312d565b60405180910390fd5b610a4283838360405180602001604052806000815250611070565b505050565b6000600754905090565b6008602052806000526040600020600091509050806000015490806001015490806002018054610a809061301e565b80601f0160208091040260200160405190810160405280929190818152602001828054610aac9061301e565b8015610af95780601f10610ace57610100808354040283529160200191610af9565b820191906000526020600020905b815481529060010190602001808311610adc57829003601f168201915b5050505050908060030160009054906101000a900460ff16908060030160019054906101000a900460ff16905085565b60096020528160005260406000208181548110610b4557600080fd5b90600052602060002001600091509150505481565b6000610b65826116d5565b9050919050565b60008073ffffffffffffffffffffffffffffffffffffffff168273ffffffffffffffffffffffffffffffffffffffff1603610bdf5760006040517f89c62b64000000000000000000000000000000000000000000000000000000008152600401610bd691906128bb565b60405180910390fd5b600360008373ffffffffffffffffffffffffffffffffffffffff1673ffffffffffffffffffffffffffffffffffffffff168152602001908152602001600020549050919050565b610c2e6117f1565b610c386000611878565b565b600b6020528060005260406000206000915090505481565b6000610c5c6117f1565b600073ffffffffffffffffffffffffffffffffffffffff168473ffffffffffffffffffffffffffffffffffffffff1603610ccb576040517f08c379a0000000000000000000000000000000000000000000000000000000008152600401610cc290613199565b60405180910390fd5b600a60008573ffffffffffffffffffffffffffffffffffffffff1673ffffffffffffffffffffffffffffffffffffffff168152602001908152602001600020600084815260200190815260200160002060009054906101000a900460ff1615610d69576040517f08c379a0000000000000000000000000000000000000000000000000000000008152600401610d609061322b565b60405180910390fd5b60076000815480929190610d7c9061327a565b919050555060006007549050610d92858261193e565b6000606490506040518060a001604052808681526020014281526020018581526020016001151581526020018260ff168152506008600084815260200190815260200160002060008201518160000155602082015181600101556040820151816002019081610e01919061346e565b5060608201518160030160006101000a81548160ff02191690831515021790555060808201518160030160016101000a81548160ff021916908360ff160217905550905050600960008773ffffffffffffffffffffffffffffffffffffffff1673ffffffffffffffffffffffffffffffffffffffff1681526020019081526020016000208590806001815401808255809150506001900390600052602060002001600090919091909150556001600a60008873ffffffffffffffffffffffffffffffffffffffff1673ffffffffffffffffffffffffffffffffffffffff168152602001908152602001600020600087815260200190815260200160002060006101000a81548160ff021916908315150217905550600b60008681526020019081526020016000206000815480929190610f399061327a565b9190505550848673ffffffffffffffffffffffffffffffffffffffff16837f65876a4106d17c3da5fd45ed61dc7d628e55a2fef30cebbbb2dd0f398b32936d428886604051610f8a93929190613540565b60405180910390a481925050509392505050565b6000600660009054906101000a900473ffffffffffffffffffffffffffffffffffffffff16905090565b606060018054610fd79061301e565b80601f01602080910402602001604051908101604052809291908181526020018280546110039061301e565b80156110505780601f1061102557610100808354040283529160200191611050565b820191906000526020600020905b81548152906001019060200180831161103357829003601f168201915b5050505050905090565b61106c61106561179a565b838361195c565b5050565b6040517f08c379a00000000000000000000000000000000000000000000000000000000081526004016110a29061312d565b60405180910390fd5b6000600b6000838152602001908152602001600020549050919050565b6110d06117f1565b600073ffffffffffffffffffffffffffffffffffffffff166110f1836117b4565b73ffffffffffffffffffffffffffffffffffffffff1603611147576040517f08c379a000000000000000000000000000000000000000000000000000000000815260040161113e9061309b565b60405180910390fd5b60648160ff16111561118e576040517f08c379a0000000000000000000000000000000000000000000000000000000008152600401611185906135ca565b60405180910390fd5b60006008600084815260200190815260200160002060030160019054906101000a900460ff169050816008600085815260200190815260200160002060030160016101000a81548160ff021916908360ff160217905550827f3f91b44958974044d7e49bb70a2516260087fc8749c88a6711fd3a947fa8111f82846040516112179291906135ea565b60405180910390a2505050565b600a6020528160005260406000206020528060005260406000206000915091509054906101000a900460ff1681565b6060600073ffffffffffffffffffffffffffffffffffffffff16611276836117b4565b73ffffffffffffffffffffffffffffffffffffffff16036112cc576040517f08c379a00000000000000000000000000000000000000000000000000000000081526004016112c39061309b565b60405180910390fd5b6112fc6112d883611acb565b6040516020016112e8919061377f565b604051602081830303815290604052611b99565b60405160200161130c9190613803565b6040516020818303038152906040529050919050565b6000600560008473ffffffffffffffffffffffffffffffffffffffff1673ffffffffffffffffffffffffffffffffffffffff16815260200190815260200160002060008373ffffffffffffffffffffffffffffffffffffffff1673ffffffffffffffffffffffffffffffffffffffff16815260200190815260200160002060009054906101000a900460ff16905092915050565b6113be6117f1565b600073ffffffffffffffffffffffffffffffffffffffff166113df826117b4565b73ffffffffffffffffffffffffffffffffffffffff1603611435576040517f08c379a000000000000000000000000000000000000000000000000000000000815260040161142c9061309b565b60405180910390fd5b6008600082815260200190815260200160002060030160009054906101000a900460ff16611498576040517f08c379a000000000000000000000000000000000000000000000000000000000815260040161148f90613871565b60405180910390fd5b60006008600083815260200190815260200160002060030160006101000a81548160ff02191690831515021790555060006114d282610b5a565b9050600060086000848152602001908152602001600020600001549050808273ffffffffffffffffffffffffffffffffffffffff16847f09adfa5a5e7d6f41241db3c5ad520db1db58e70ccdc93e235f9aed6267f59b9d604051611535906138dd565b60405180910390a4505050565b61154a6117f1565b600073ffffffffffffffffffffffffffffffffffffffff168173ffffffffffffffffffffffffffffffffffffffff16036115bc5760006040517f1e4fbdf70000000000000000000000000000000000000000000000000000000081526004016115b391906128bb565b60405180910390fd5b6115c581611878565b50565b60008073ffffffffffffffffffffffffffffffffffffffff166115ea836117b4565b73ffffffffffffffffffffffffffffffffffffffff1603611640576040517f08c379a00000000000000000000000000000000000000000000000000000000081526004016116379061309b565b60405180910390fd5b6008600083815260200190815260200160002060030160009054906101000a900460ff169050919050565b60007f01ffc9a7000000000000000000000000000000000000000000000000000000007bffffffffffffffffffffffffffffffffffffffffffffffffffffffff1916827bffffffffffffffffffffffffffffffffffffffffffffffffffffffff1916149050919050565b6000806116e1836117b4565b9050600073ffffffffffffffffffffffffffffffffffffffff168173ffffffffffffffffffffffffffffffffffffffff160361175457826040517f7e27328900000000000000000000000000000000000000000000000000000000815260040161174b9190612b40565b60405180910390fd5b80915050919050565b60006004600083815260200190815260200160002060009054906101000a900473ffffffffffffffffffffffffffffffffffffffff169050919050565b600033905090565b6117af8383836001611d11565b505050565b60006002600083815260200190815260200160002060009054906101000a900473ffffffffffffffffffffffffffffffffffffffff169050919050565b6117f961179a565b73ffffffffffffffffffffffffffffffffffffffff16611817610f9e565b73ffffffffffffffffffffffffffffffffffffffff16146118765761183a61179a565b6040517f118cdaa700000000000000000000000000000000000000000000000000000000815260040161186d91906128bb565b60405180910390fd5b565b6000600660009054906101000a900473ffffffffffffffffffffffffffffffffffffffff16905081600660006101000a81548173ffffffffffffffffffffffffffffffffffffffff021916908373ffffffffffffffffffffffffffffffffffffffff1602179055508173ffffffffffffffffffffffffffffffffffffffff168173ffffffffffffffffffffffffffffffffffffffff167f8be0079c531659141344cd1fd0a4f28419497f9722a3daafe3b4186f6b6457e060405160405180910390a35050565b611958828260405180602001604052806000815250611ed6565b5050565b600073ffffffffffffffffffffffffffffffffffffffff168273ffffffffffffffffffffffffffffffffffffffff16036119cd57816040517f5b08ba180000000000000000000000000000000000000000000000000000000081526004016119c491906128bb565b60405180910390fd5b80600560008573ffffffffffffffffffffffffffffffffffffffff1673ffffffffffffffffffffffffffffffffffffffff16815260200190815260200160002060008473ffffffffffffffffffffffffffffffffffffffff1673ffffffffffffffffffffffffffffffffffffffff16815260200190815260200160002060006101000a81548160ff0219169083151502179055508173ffffffffffffffffffffffffffffffffffffffff168373ffffffffffffffffffffffffffffffffffffffff167f17307eab39ab6107e8899845ad3d59bd9653f200f220920489ca2b5937696c3183604051611abe919061274a565b60405180910390a3505050565b606060006001611ada84611efa565b01905060008167ffffffffffffffff811115611af957611af8612bd9565b5b6040519080825280601f01601f191660200182016040528015611b2b5781602001600182028036833780820191505090505b509050600082602083010190505b600115611b8e578080600190039150507f3031323334353637383961626364656600000000000000000000000000000000600a86061a8153600a8581611b8257611b816138fd565b5b04945060008503611b39575b819350505050919050565b60606000825103611bbb57604051806020016040528060008152509050611d0c565b6000604051806060016040528060408152602001613ae06040913990506000600360028551611bea919061392c565b611bf49190613960565b6004611c009190613991565b90506000602082611c11919061392c565b67ffffffffffffffff811115611c2a57611c29612bd9565b5b6040519080825280601f01601f191660200182016040528015611c5c5781602001600182028036833780820191505090505b509050600183016020820186875188015b80821015611cc8576003820191508151603f8160121c168501518453600184019350603f81600c1c168501518453600184019350603f8160061c168501518453600184019350603f8116850151845360018401935050611c6d565b5050600387510660018114611ce45760028114611cf457611cff565b613d3d60f01b6002830352611cff565b603d60f81b60018303525b5083835250508093505050505b919050565b8080611d4a5750600073ffffffffffffffffffffffffffffffffffffffff168273ffffffffffffffffffffffffffffffffffffffff1614155b15611e7e576000611d5a846116d5565b9050600073ffffffffffffffffffffffffffffffffffffffff168373ffffffffffffffffffffffffffffffffffffffff1614158015611dc557508273ffffffffffffffffffffffffffffffffffffffff168173ffffffffffffffffffffffffffffffffffffffff1614155b8015611dd85750611dd68184611322565b155b15611e1a57826040517fa9fbf51f000000000000000000000000000000000000000000000000000000008152600401611e1191906128bb565b60405180910390fd5b8115611e7c57838573ffffffffffffffffffffffffffffffffffffffff168273ffffffffffffffffffffffffffffffffffffffff167f8c5be1e5ebec7d5bd14f71427d1e84f3dd0314c0f7b2291e5b200ac8c7c3b92560405160405180910390a45b505b836004600085815260200190815260200160002060006101000a81548173ffffffffffffffffffffffffffffffffffffffff021916908373ffffffffffffffffffffffffffffffffffffffff16021790555050505050565b611ee0838361204d565b611ef5611eeb61179a565b6000858585612146565b505050565b600080600090507a184f03e93ff9f4daa797ed6e38ed64bf6a1f0100000000000000008310611f58577a184f03e93ff9f4daa797ed6e38ed64bf6a1f0100000000000000008381611f4e57611f4d6138fd565b5b0492506040810190505b6d04ee2d6d415b85acef81000000008310611f95576d04ee2d6d415b85acef81000000008381611f8b57611f8a6138fd565b5b0492506020810190505b662386f26fc100008310611fc457662386f26fc100008381611fba57611fb96138fd565b5b0492506010810190505b6305f5e1008310611fed576305f5e1008381611fe357611fe26138fd565b5b0492506008810190505b6127108310612012576127108381612008576120076138fd565b5b0492506004810190505b60648310612035576064838161202b5761202a6138fd565b5b0492506002810190505b600a8310612044576001810190505b80915050919050565b600073ffffffffffffffffffffffffffffffffffffffff168273ffffffffffffffffffffffffffffffffffffffff16036120bf5760006040517f64a0ae920000000000000000000000000000000000000000000000000000000081526004016120b691906128bb565b60405180910390fd5b60006120cd838360006122f7565b9050600073ffffffffffffffffffffffffffffffffffffffff168173ffffffffffffffffffffffffffffffffffffffff16146121415760006040517f73c6ac6e00000000000000000000000000000000000000000000000000000000815260040161213891906128bb565b60405180910390fd5b505050565b60008373ffffffffffffffffffffffffffffffffffffffff163b11156122f0578273ffffffffffffffffffffffffffffffffffffffff1663150b7a02868685856040518563ffffffff1660e01b81526004016121a59493929190613a28565b6020604051808303816000875af19250505080156121e157506040513d601f19601f820116820180604052508101906121de9190613a89565b60015b612265573d8060008114612211576040519150601f19603f3d011682016040523d82523d6000602084013e612216565b606091505b50600081510361225d57836040517f64a0ae9200000000000000000000000000000000000000000000000000000000815260040161225491906128bb565b60405180910390fd5b805160208201fd5b63150b7a0260e01b7bffffffffffffffffffffffffffffffffffffffffffffffffffffffff1916817bffffffffffffffffffffffffffffffffffffffffffffffffffffffff1916146122ee57836040517f64a0ae920000000000000000000000000000000000000000000000000000000081526004016122e591906128bb565b60405180910390fd5b505b5050505050565b600080612303846117b4565b9050600073ffffffffffffffffffffffffffffffffffffffff168373ffffffffffffffffffffffffffffffffffffffff161461234557612344818486612511565b5b600073ffffffffffffffffffffffffffffffffffffffff168173ffffffffffffffffffffffffffffffffffffffff16146123d657612387600085600080611d11565b6001600360008373ffffffffffffffffffffffffffffffffffffffff1673ffffffffffffffffffffffffffffffffffffffff168152602001908152602001600020600082825403925050819055505b600073ffffffffffffffffffffffffffffffffffffffff168573ffffffffffffffffffffffffffffffffffffffff1614612459576001600360008773ffffffffffffffffffffffffffffffffffffffff1673ffffffffffffffffffffffffffffffffffffffff168152602001908152602001600020600082825401925050819055505b846002600086815260200190815260200160002060006101000a81548173ffffffffffffffffffffffffffffffffffffffff021916908373ffffffffffffffffffffffffffffffffffffffff160217905550838573ffffffffffffffffffffffffffffffffffffffff168273ffffffffffffffffffffffffffffffffffffffff167fddf252ad1be2c89b69c2b068fc378daa952ba7f163c4a11628f55a4df523b3ef60405160405180910390a4809150509392505050565b61251c8383836125d5565b6125d057600073ffffffffffffffffffffffffffffffffffffffff168373ffffffffffffffffffffffffffffffffffffffff160361259157806040517f7e2732890000000000000000000000000000000000000000000000000000000081526004016125889190612b40565b60405180910390fd5b81816040517f177e802f0000000000000000000000000000000000000000000000000000000081526004016125c7929190613ab6565b60405180910390fd5b505050565b60008073ffffffffffffffffffffffffffffffffffffffff168373ffffffffffffffffffffffffffffffffffffffff161415801561268d57508273ffffffffffffffffffffffffffffffffffffffff168473ffffffffffffffffffffffffffffffffffffffff16148061264e575061264d8484611322565b5b8061268c57508273ffffffffffffffffffffffffffffffffffffffff166126748361175d565b73ffffffffffffffffffffffffffffffffffffffff16145b5b90509392505050565b6000604051905090565b600080fd5b600080fd5b60007fffffffff0000000000000000000000000000000000000000000000000000000082169050919050565b6126df816126aa565b81146126ea57600080fd5b50565b6000813590506126fc816126d6565b92915050565b600060208284031215612718576127176126a0565b5b6000612726848285016126ed565b91505092915050565b60008115159050919050565b6127448161272f565b82525050565b600060208201905061275f600083018461273b565b92915050565b600081519050919050565b600082825260208201905092915050565b60005b8381101561279f578082015181840152602081019050612784565b60008484015250505050565b6000601f19601f8301169050919050565b60006127c782612765565b6127d18185612770565b93506127e1818560208601612781565b6127ea816127ab565b840191505092915050565b6000602082019050818103600083015261280f81846127bc565b905092915050565b6000819050919050565b61282a81612817565b811461283557600080fd5b50565b60008135905061284781612821565b92915050565b600060208284031215612863576128626126a0565b5b600061287184828501612838565b91505092915050565b600073ffffffffffffffffffffffffffffffffffffffff82169050919050565b60006128a58261287a565b9050919050565b6128b58161289a565b82525050565b60006020820190506128d060008301846128ac565b92915050565b6128df8161289a565b81146128ea57600080fd5b50565b6000813590506128fc816128d6565b92915050565b60008060408385031215612919576129186126a0565b5b6000612927858286016128ed565b925050602061293885828601612838565b9150509250929050565b600060208284031215612958576129576126a0565b5b6000612966848285016128ed565b91505092915050565b600081519050919050565b600082825260208201905092915050565b6000819050602082019050919050565b6000819050919050565b6129ae8161299b565b82525050565b60006129c083836129a5565b60208301905092915050565b6000602082019050919050565b60006129e48261296f565b6129ee818561297a565b93506129f98361298b565b8060005b83811015612a2a578151612a1188826129b4565b9750612a1c836129cc565b9250506001810190506129fd565b5085935050505092915050565b60006020820190508181036000830152612a5181846129d9565b905092915050565b612a628161299b565b82525050565b612a7181612817565b82525050565b600060ff82169050919050565b612a8d81612a77565b82525050565b600060a082019050612aa86000830188612a59565b612ab56020830187612a68565b8181036040830152612ac781866127bc565b9050612ad6606083018561273b565b612ae36080830184612a84565b9695505050505050565b600080600060608486031215612b0657612b056126a0565b5b6000612b14868287016128ed565b9350506020612b25868287016128ed565b9250506040612b3686828701612838565b9150509250925092565b6000602082019050612b556000830184612a68565b92915050565b6000602082019050612b706000830184612a59565b92915050565b612b7f8161299b565b8114612b8a57600080fd5b50565b600081359050612b9c81612b76565b92915050565b600060208284031215612bb857612bb76126a0565b5b6000612bc684828501612b8d565b91505092915050565b600080fd5b600080fd5b7f4e487b7100000000000000000000000000000000000000000000000000000000600052604160045260246000fd5b612c11826127ab565b810181811067ffffffffffffffff82111715612c3057612c2f612bd9565b5b80604052505050565b6000612c43612696565b9050612c4f8282612c08565b919050565b600067ffffffffffffffff821115612c6f57612c6e612bd9565b5b612c78826127ab565b9050602081019050919050565b82818337600083830152505050565b6000612ca7612ca284612c54565b612c39565b905082815260208101848484011115612cc357612cc2612bd4565b5b612cce848285612c85565b509392505050565b600082601f830112612ceb57612cea612bcf565b5b8135612cfb848260208601612c94565b91505092915050565b600080600060608486031215612d1d57612d1c6126a0565b5b6000612d2b868287016128ed565b9350506020612d3c86828701612b8d565b925050604084013567ffffffffffffffff811115612d5d57612d5c6126a5565b5b612d6986828701612cd6565b9150509250925092565b612d7c8161272f565b8114612d8757600080fd5b50565b600081359050612d9981612d73565b92915050565b60008060408385031215612db657612db56126a0565b5b6000612dc4858286016128ed565b9250506020612dd585828601612d8a565b9150509250929050565b600067ffffffffffffffff821115612dfa57612df9612bd9565b5b612e03826127ab565b9050602081019050919050565b6000612e23612e1e84612ddf565b612c39565b905082815260208101848484011115612e3f57612e3e612bd4565b5b612e4a848285612c85565b509392505050565b600082601f830112612e6757612e66612bcf565b5b8135612e77848260208601612e10565b91505092915050565b60008060008060808587031215612e9a57612e996126a0565b5b6000612ea8878288016128ed565b9450506020612eb9878288016128ed565b9350506040612eca87828801612838565b925050606085013567ffffffffffffffff811115612eeb57612eea6126a5565b5b612ef787828801612e52565b91505092959194509250565b612f0c81612a77565b8114612f1757600080fd5b50565b600081359050612f2981612f03565b92915050565b60008060408385031215612f4657612f456126a0565b5b6000612f5485828601612838565b9250506020612f6585828601612f1a565b9150509250929050565b60008060408385031215612f8657612f856126a0565b5b6000612f94858286016128ed565b9250506020612fa585828601612b8d565b9150509250929050565b60008060408385031215612fc657612fc56126a0565b5b6000612fd4858286016128ed565b9250506020612fe5858286016128ed565b9150509250929050565b7f4e487b7100000000000000000000000000000000000000000000000000000000600052602260045260246000fd5b6000600282049050600182168061303657607f821691505b60208210810361304957613048612fef565b5b50919050565b7f546f6b656e20646f6573206e6f74206578697374000000000000000000000000600082015250565b6000613085601483612770565b91506130908261304f565b602082019050919050565b600060208201905081810360008301526130b481613078565b9050919050565b7f504f415020697320536f756c626f756e6420616e642063616e6e6f742062652060008201527f7472616e73666572726564000000000000000000000000000000000000000000602082015250565b6000613117602b83612770565b9150613122826130bb565b604082019050919050565b600060208201905081810360008301526131468161310a565b9050919050565b7f496e76616c69642077616c6c6574206164647265737300000000000000000000600082015250565b6000613183601683612770565b915061318e8261314d565b602082019050919050565b600060208201905081810360008301526131b281613176565b9050919050565b7f504f415020616c726561647920636c61696d656420666f72207468697320657660008201527f656e740000000000000000000000000000000000000000000000000000000000602082015250565b6000613215602383612770565b9150613220826131b9565b604082019050919050565b6000602082019050818103600083015261324481613208565b9050919050565b7f4e487b7100000000000000000000000000000000000000000000000000000000600052601160045260246000fd5b600061328582612817565b91507fffffffffffffffffffffffffffffffffffffffffffffffffffffffffffffffff82036132b7576132b661324b565b5b600182019050919050565b60008190508160005260206000209050919050565b60006020601f8301049050919050565b600082821b905092915050565b6000600883026133247fffffffffffffffffffffffffffffffffffffffffffffffffffffffffffffffff826132e7565b61332e86836132e7565b95508019841693508086168417925050509392505050565b6000819050919050565b600061336b61336661336184612817565b613346565b612817565b9050919050565b6000819050919050565b61338583613350565b61339961339182613372565b8484546132f4565b825550505050565b600090565b6133ae6133a1565b6133b981848461337c565b505050565b5b818110156133dd576133d26000826133a6565b6001810190506133bf565b5050565b601f821115613422576133f3816132c2565b6133fc846132d7565b8101602085101561340b578190505b61341f613417856132d7565b8301826133be565b50505b505050565b600082821c905092915050565b600061344560001984600802613427565b1980831691505092915050565b600061345e8383613434565b9150826002028217905092915050565b61347782612765565b67ffffffffffffffff8111156134905761348f612bd9565b5b61349a825461301e565b6134a58282856133e1565b600060209050601f8311600181146134d857600084156134c6578287015190505b6134d08582613452565b865550613538565b601f1984166134e6866132c2565b60005b8281101561350e578489015182556001820191506020850194506020810190506134e9565b8683101561352b5784890151613527601f891682613434565b8355505b6001600288020188555050505b505050505050565b60006060820190506135556000830186612a68565b818103602083015261356781856127bc565b90506135766040830184612a84565b949350505050565b7f53636f7265206d75737420626520302d31303000000000000000000000000000600082015250565b60006135b4601383612770565b91506135bf8261357e565b602082019050919050565b600060208201905081810360008301526135e3816135a7565b9050919050565b60006040820190506135ff6000830185612a84565b61360c6020830184612a84565b9392505050565b600081905092915050565b7f7b226e616d65223a22417474656e64616e636520426164676520230000000000600082015250565b6000613654601b83613613565b915061365f8261361e565b601b82019050919050565b600061367582612765565b61367f8185613613565b935061368f818560208601612781565b80840191505092915050565b7f222c226465736372697074696f6e223a225665726966696564206576656e742060008201527f617474656e64616e636520504f4150222c000000000000000000000000000000602082015250565b60006136f7603183613613565b91506137028261369b565b603182019050919050565b7f22696d616765223a2268747470733a2f2f796f75722d646f6d61696e2e636f6d60008201527f2f706f61702d62616467652e706e67227d000000000000000000000000000000602082015250565b6000613769603183613613565b91506137748261370d565b603182019050919050565b600061378a82613647565b9150613796828461366a565b91506137a1826136ea565b91506137ac8261375c565b915081905092915050565b7f646174613a6170706c69636174696f6e2f6a736f6e3b6261736536342c000000600082015250565b60006137ed601d83613613565b91506137f8826137b7565b601d82019050919050565b600061380e826137e0565b915061381a828461366a565b915081905092915050565b7f416c7265616479207265766f6b65640000000000000000000000000000000000600082015250565b600061385b600f83612770565b915061386682613825565b602082019050919050565b6000602082019050818103600083015261388a8161384e565b9050919050565b7f41646d696e207265766f636174696f6e00000000000000000000000000000000600082015250565b60006138c7601083612770565b91506138d282613891565b602082019050919050565b600060208201905081810360008301526138f6816138ba565b9050919050565b7f4e487b7100000000000000000000000000000000000000000000000000000000600052601260045260246000fd5b600061393782612817565b915061394283612817565b925082820190508082111561395a5761395961324b565b5b92915050565b600061396b82612817565b915061397683612817565b925082613986576139856138fd565b5b828204905092915050565b600061399c82612817565b91506139a783612817565b92508282026139b581612817565b915082820484148315176139cc576139cb61324b565b5b5092915050565b600081519050919050565b600082825260208201905092915050565b60006139fa826139d3565b613a0481856139de565b9350613a14818560208601612781565b613a1d816127ab565b840191505092915050565b6000608082019050613a3d60008301876128ac565b613a4a60208301866128ac565b613a576040830185612a68565b8181036060830152613a6981846139ef565b905095945050505050565b600081519050613a83816126d6565b92915050565b600060208284031215613a9f57613a9e6126a0565b5b6000613aad84828501613a74565b91505092915050565b6000604082019050613acb60008301856128ac565b613ad86020830184612a68565b939250505056fe4142434445464748494a4b4c4d4e4f505152535455565758595a6162636465666768696a6b6c6d6e6f707172737475767778797a303132333435363738392b2fa264697066735822122033bad5df0a39f34d63db0d679cff1ac13d6aaec63ecc933173721175911e019864736f6c63430008140033",
  "linkReferences": {},
  "deployedLinkReferences": {}
}