{
  "_format": "hh-sol-artifact-1",
  "contractName": "POAPCredential",
  "sourceName": "contracts/POAPCredential.sol",
  "abi": [
    {
      "inputs": [],
      "stateMutability": "nonpayable",
      "type": "constructor"
    },
    {
      "inputs": [
        {
          "internalType": "address",
          "name": "sender",
          "type": "address"
        },
        {
          "internalType": "uint256",
          "name": "tokenId",
          "type": "uint256"
        },
        {
          "internalType": "address",
          "name": "owner",
          "type": "address"
        }
      ],
      "name": "ERC721IncorrectOwner",
      "type": "error"
    },
    {
      "inputs": [
        {
          "internalType": "address",
          "name": "operator",
          "type": "address"
        },
        {
          "internalType": "uint256",
          "name": "tokenId",
          "type": "uint256"
        }
      ],
      "name": "ERC721InsufficientApproval",
      "type": "error"
    },
    {
      "inputs": [
        {
          "internalType": "address",
          "name": "approver",
          "type": "address"
        }
      ],
      "name": "ERC721InvalidApprover",
      "type": "error"
    },
    {
      "inputs": [
        {
          "internalType": "address",
          "name": "operator",
          "type": "address"
        }
      ],
      "name": "ERC721InvalidOperator",
      "type": "error"
    },
    {
      "inputs": [
        {
          "internalType": "address",
          "name": "owner",
          "type": "address"
        }
      ],
      "name": "ERC721InvalidOwner",
      "type": "error"
    },
    {
      "inputs": [
        {
          "internalType": "address",
          "name": "receiver",
          "type": "address"
        }
      ],
      "name": "ERC721InvalidReceiver",
      "type": "error"
    },
    {
      "inputs": [
        {
          "internalType": "address",
          "name": "sender",
          "type": "address"
        }
      ],
      "name": "ERC721InvalidSender",
      "type": "error"
    },
    {
      "inputs": [
        {
          "internalType": "uint256",
          "name": "tokenId",
          "type": "uint256"
        }
      ],
      "name": "ERC721NonexistentToken",
      "type": "error"
    },
    {
      "inputs": [
        {
          "internalType": "address",
          "name": "owner",
          "type": "address"
        }
      ],
      "name": "OwnableInvalidOwner",
      "type": "error"
    },
    {
      "inputs": [
        {
          "internalType": "address",
          "name": "account",
          "type": "address"
        }
      ],
      "name": "OwnableUnauthorizedAccount",
      "type": "error"
    },
    {
      "anonymous": false,
      "inputs": [
        {
          "indexed": true,
          "internalType": "address",
          "name": "owner",
          "type": "address"
        },
        {
          "indexed": true,
          "internalType": "address",
          "name": "approved",
          "type": "address"
        },
        {
          "indexed": true,
          "internalType": "uint256",
          "name": "tokenId",
          "type": "uint256"
        }
      ],
      "name": "Approval",
      "type": "event"
    },
    {
      "anonymous": false,
      "inputs": [
        {
          "indexed": true,
          "internalType": "address",
          "name": "owner",
          "type": "address"
        },
        {
          "indexed": true,
          "internalType": "address",
          "name": "operator",
          "type": "address"
        },
        {
          "indexed": false,
          "internalType": "bool",
          "name": "approved",
          "type": "bool"
        }
      ],
      "name": "ApprovalForAll",
      "type": "event"
    },
    {
      "anonymous": false,
      "inputs": [
        {
          "indexed": true,
          "internalType": "uint256",
          "name": "tokenId",
          "type": "uint256"
        }
      ],
      "name": "AttendanceRevoked",
      "type": "event"
    },
    {
      "anonymous": false,
      "inputs": [
        {
          "indexed": true,
          "internalType": "address",
          "name": "previousOwner",
          "type": "address"
        },
        {
          "indexed": true,
          "internalType": "address",
          "name": "newOwner",
          "type": "address"
        }
      ],
      "name": "OwnershipTransferred",
      "type": "event"
    },
    {
      "anonymous": false,
      "inputs": [
        {
          "indexed": true,
          "internalType": "uint256",
          "name": "tokenId",
          "type": "uint256"
        },
        {
          "indexed": true,
          "internalType": "address",
          "name": "student",
          "type": "address"
        },
        {
          "indexed": false,
          "internalType": "bytes32",
          "name": "eventHash",
          "type": "bytes32"
        },
        {
          "indexed": false,
          "internalType": "uint256",
          "name": "checkInTime",
          "type": "uint256"
        }
      ],
      "name": "POAPMinted",
      "type": "event"
    },
    {
      "anonymous": false,
      "inputs": [
        {
          "indexed": true,
          "internalType": "address",
          "name": "from",
          "type": "address"
        },
        {
          "indexed": true,
          "internalType": "address",
          "name": "to",
          "type": "address"
        },
        {
          "indexed": true,
          "internalType": "uint256",
          "name": "tokenId",
          "type": "uint256"
        }
      ],
      "name": "Transfer",
      "type": "event"
    },
    {
      "inputs": [
        {
          "internalType": "address",
          "name": "to",
          "type": "address"
        },
        {
          "internalType": "uint256",
          "name": "tokenId",
          "type": "uint256"
        }
      ],
      "name": "approve",
      "outputs": [],
      "stateMutability": "nonpayable",
      "type": "function"
    },
    {
      "inputs": [
        {
          "internalType": "uint256",
          "name": "",
          "type": "uint256"
        }
      ],
      "name": "attendanceRecords",
      "outputs": [
        {
          "internalType": "bytes32",
          "name": "eventHash",
          "type": "bytes32"
        },
        {
          "internalType": "uint256",
          "name": "checkInTime",
          "type": "uint256"
        },
        {
          "internalType": "string",
          "name": "geoLocation",
          "type": "string"
        },
        {
          "internalType": "bool",
          "name": "isValid",
          "type": "bool"
        }
      ],
      "stateMutability": "view",
      "type": "function"
    },
    {
      "inputs": [
        {
          "internalType": "address",
          "name": "owner",
          "type": "address"
        }
      ],
      "name": "balanceOf",
      "outputs": [
        {
          "internalType": "uint256",
          "name": "",
          "type": "uint256"
        }
      ],
      "stateMutability": "view",
      "type": "function"
    },
    {
      "inputs": [
        {
          "internalType": "uint256",
          "name": "tokenId",
          "type": "uint256"
        }
      ],
      "name": "getApproved",
      "outputs": [
        {
          "internalType": "address",
          "name": "",
          "type": "address"
        }
      ],
      "stateMutability": "view",
      "type": "function"
    },
    {
      "inputs": [
        {
          "internalType": "address",
          "name": "",
          "type": "address"
        },
        {
          "internalType": "bytes32",
          "name": "",
          "type": "bytes32"
        }
      ],
      "name": "hasAttended",
      "outputs": [
        {
          "internalType": "bool",
          "name": "",
          "type": "bool"
        }
      ],
      "stateMutability": "view",
      "type": "function"
    },
    {
      "inputs": [
        {
          "internalType": "address",
          "name": "owner",
          "type": "address"
        },
        {
          "internalType": "address",
          "name": "operator",
          "type": "address"
        }
      ],
      "name": "isApprovedForAll",
      "outputs": [
        {
          "internalType": "bool",
          "name": "",
          "type": "bool"
        }
      ],
      "stateMutability": "view",
      "type": "function"
    },
    {
      "inputs": [
        {
          "internalType": "address",
          "name": "studentWallet",
          "type": "address"
        },
        {
          "internalType": "bytes32",
          "name": "eventHash",
          "type": "bytes32"
        },
        {
          "internalType": "string",
          "name": "geoLocation",
          "type": "string"
        }
      ],
      "name": "mintPOAP",
      "outputs": [
        {
          "internalType": "uint256",
          "name": "",
          "type": "uint256"
        }
      ],
      "stateMutability": "nonpayable",
      "type": "function"
    },
    {
      "inputs": [],
      "name": "name",
      "outputs": [
        {
          "internalType": "string",
          "name": "",
          "type": "string"
        }
      ],
      "stateMutability": "view",
      "type": "function"
    },
    {
      "inputs": [],
      "name": "owner",
      "outputs": [
        {
          "internalType": "address",
          "name": "",
          "type": "address"
        }
      ],
      "stateMutability": "view",
      "type": "function"
    },
    {
      "inputs": [
        {
          "internalType": "uint256",
          "name": "tokenId",
          "type": "uint256"
        }
      ],
      "name": "ownerOf",
      "outputs": [
        {
          "internalType": "address",
          "name": "",
          "type": "address"
        }
      ],
      "stateMutability": "view",
      "type": "function"
    },
    {
      "inputs": [],
      "name": "renounceOwnership",
      "outputs": [],
      "stateMutability": "nonpayable",
      "type": "function"
    },
    {
      "inputs": [
        {
          "internalType": "uint256",
          "name": "tokenId",
          "type": "uint256"
        }
      ],
      "name": "revokeAttendance",
      "outputs": [],
      "stateMutability": "nonpayable",
      "type": "function"
    },
    {
      "inputs": [
        {
          "internalType": "address",
          "name": "from",
          "type": "address"
        },
        {
          "internalType": "address",
          "name": "to",
          "type": "address"
        },
        {
          "internalType": "uint256",
          "name": "tokenId",
          "type": "uint256"
        }
      ],
      "name": "safeTransferFrom",
      "outputs": [],
      "stateMutability": "nonpayable",
      "type": "function"
    },
    {
      "inputs": [
        {
          "internalType": "address",
          "name": "",
          "type": "address"
        },
        {
          "internalType": "address",
          "name": "",
          "type": "address"
        },
        {
          "internalType": "uint256",
          "name": "",
          "type": "uint256"
        },
        {
          "internalType": "bytes",
          "name": "",
          "type": "bytes"
        }
      ],
      "name": "safeTransferFrom",
      "outputs": [],
      "stateMutability": "pure",
      "type": "function"
    },
    {
      "inputs": [
        {
          "internalType": "address",
          "name": "operator",
          "type": "address"
        },
        {
          "internalType": "bool",
          "name": "approved",
          "type": "bool"
        }
      ],
      "name": "setApprovalForAll",
      "outputs": [],
      "stateMutability": "nonpayable",
      "type": "function"
    },
    {
      "inputs": [
        {
          "internalType": "address",
          "name": "",
          "type": "address"
        },
        {
          "internalType": "uint256",
          "name": "",
          "type": "uint256"
        }
      ],
      "name": "studentAttendance",
      "outputs": [
        {
          "internalType": "bytes32",
          "name": "",
          "type": "bytes32"
        }
      ],
      "stateMutability": "view",
      "type": "function"
    },
    {
      "inputs": [
        {
          "internalType": "bytes4",
          "name": "interfaceId",
          "type": "bytes4"
        }
      ],
      "name": "supportsInterface",
      "outputs": [
        {
          "internalType": "bool",
          "name": "",
          "type": "bool"
        }
      ],
      "stateMutability": "view",
      "type": "function"
    },
    {
      "inputs": [],
      "name": "symbol",
      "outputs": [
        {
          "internalType": "string",
          "name": "",
          "type": "string"
        }
      ],
      "stateMutability": "view",
      "type": "function"
    },
    {
      "inputs": [
        {
          "internalType": "uint256",
          "name": "tokenId",
          "type": "uint256"
        }
      ],
      "name": "tokenURI",
      "outputs": [
        {
          "internalType": "string",
          "name": "",
          "type": "string"
        }
      ],
      "stateMutability": "view",
      "type": "function"
    },
    {
      "inputs": [
        {
          "internalType": "address",
          "name": "",
          "type": "address"
        },
        {
          "internalType": "address",
          "name": "",
          "type": "address"
        },
        {
          "internalType": "uint256",
          "name": "",
          "type": "uint256"
        }
      ],
      "name": "transferFrom",
      "outputs": [],
      "stateMutability": "pure",
      "type": "function"
    },
    {
      "inputs": [
        {
          "internalType": "address",
          "name": "newOwner",
          "type": "address"
        }
      ],
      "name": "transferOwnership",
      "outputs": [],
      "stateMutability": "nonpayable",
      "type": "function"
    }
  ],
  "bytecode": "0x60806040523480156200001157600080fd5b50336040518060400160405280601581526020017f4576656e7420417474656e64616e636520504f415000000000000000000000008152506040518060400160405280600481526020017f504f415000000000000000000000000000000000000000000000000000000000815250816000908162000090919062000472565b508060019081620000a2919062000472565b505050600073ffffffffffffffffffffffffffffffffffffffff168173ffffffffffffffffffffffffffffffffffffffff16036200011a5760006040517f1e4fbdf70000000000000000000000000000000000000000000000000000000081526004016200011191906200059e565b60405180910390fd5b6200012b816200013260201b60201c565b50620005bb565b6000600660009054906101000a900473ffffffffffffffffffffffffffffffffffffffff16905081600660006101000a81548173ffffffffffffffffffffffffffffffffffffffff021916908373ffffffffffffffffffffffffffffffffffffffff1602179055508173ffffffffffffffffffffffffffffffffffffffff168173ffffffffffffffffffffffffffffffffffffffff167f8be0079c531659141344cd1fd0a4f28419497f9722a3daafe3b4186f6b6457e060405160405180910390a35050565b600081519050919050565b7f4e487b7100000000000000000000000000000000000000000000000000000000600052604160045260246000fd5b7f4e487b7100000000000000000000000000000000000000000000000000000000600052602260045260246000fd5b600060028204905060018216806200027a57607f821691505b60208210810362000290576200028f62000232565b5b50919050565b60008190508160005260206000209050919050565b60006020601f8301049050919050565b600082821b905092915050565b600060088302620002fa7fffffffffffffffffffffffffffffffffffffffffffffffffffffffffffffffff82620002bb565b620003068683620002bb565b95508019841693508086168417925050509392505050565b6000819050919050565b6000819050919050565b6000620003536200034d62000347846200031e565b62000328565b6200031e565b9050919050565b6000819050919050565b6200036f8362000332565b620003876200037e826200035a565b848454620002c8565b825550505050565b600090565b6200039e6200038f565b620003ab81848462000364565b505050565b5b81811015620003d357620003c760008262000394565b600181019050620003b1565b5050565b601f8211156200042257620003ec8162000296565b620003f784620002ab565b8101602085101562000407578190505b6200041f6200041685620002ab565b830182620003b0565b50505b505050565b600082821c905092915050565b6000620004476000198460080262000427565b1980831691505092915050565b600062000462838362000434565b9150826002028217905092915050565b6200047d82620001f8565b67ffffffffffffffff81111562000499576200049862000203565b5b620004a5825462000261565b620004b2828285620003d7565b600060209050601f831160018114620004ea5760008415620004d5578287015190505b620004e1858262000454565b86555062000551565b601f198416620004fa8662000296565b60005b828110156200052457848901518255600182019150602085019450602081019050620004fd565b8683101562000544578489015162000540601f89168262000434565b8355505b6001600288020188555050505b505050505050565b600073ffffffffffffffffffffffffffffffffffffffff82169050919050565b6000620005868262000559565b9050919050565b620005988162000579565b82525050565b6000602082019050620005b560008301846200058d565b92915050565b612b4680620005cb6000396000f3fe608060405234801561001057600080fd5b50600436106101375760003560e01c8063715018a6116100b8578063b88d4fde1161007c578063b88d4fde14610363578063c72030281461037f578063c87b56dd146103af578063e985e9c5146103df578063ea0890661461040f578063f2fde38b1461042b57610137565b8063715018a6146102d15780638ab8d755146102db5780638da5cb5b1461030b57806395d89b4114610329578063a22cb4651461034757610137565b806342842e0e116100ff57806342842e0e146101f25780635763c1841461020e578063623e480e146102415780636352211e1461027157806370a08231146102a157610137565b806301ffc9a71461013c57806306fdde031461016c578063081812fc1461018a578063095ea7b3146101ba57806323b872dd146101d6575b600080fd5b61015660048036038101906101519190611d69565b610447565b6040516101639190611db1565b60405180910390f35b610174610529565b6040516101819190611e5c565b60405180910390f35b6101a4600480360381019061019f9190611eb4565b6105bb565b6040516101b19190611f22565b60405180910390f35b6101d460048036038101906101cf9190611f69565b6105d7565b005b6101f060048036038101906101eb9190611fa9565b6105ed565b005b61020c60048036038101906102079190611fa9565b610628565b005b61022860048036038101906102239190611eb4565b610648565b6040516102389493929190612024565b60405180910390f35b61025b60048036038101906102569190611f69565b61070d565b6040516102689190612070565b60405180910390f35b61028b60048036038101906102869190611eb4565b61073e565b6040516102989190611f22565b60405180910390f35b6102bb60048036038101906102b6919061208b565b610750565b6040516102c891906120b8565b60405180910390f35b6102d961080a565b005b6102f560048036038101906102f09190612234565b61081e565b60405161030291906120b8565b60405180910390f35b610313610b0d565b6040516103209190611f22565b60405180910390f35b610331610b37565b60405161033e9190611e5c565b60405180910390f35b610361600480360381019061035c91906122cf565b610bc9565b005b61037d600480360381019061037891906123b0565b610bdf565b005b61039960048036038101906103949190612433565b610c1a565b6040516103a69190611db1565b60405180910390f35b6103c960048036038101906103c49190611eb4565b610c49565b6040516103d69190611e5c565b60405180910390f35b6103f960048036038101906103f49190612473565b610cb2565b6040516104069190611db1565b60405180910390f35b61042960048036038101906104249190611eb4565b610d46565b005b6104456004803603810190610440919061208b565b610dad565b005b60007f80ac58cd000000000000000000000000000000000000000000000000000000007bffffffffffffffffffffffffffffffffffffffffffffffffffffffff1916827bffffffffffffffffffffffffffffffffffffffffffffffffffffffff1916148061051257507f5b5e139f000000000000000000000000000000000000000000000000000000007bffffffffffffffffffffffffffffffffffffffffffffffffffffffff1916827bffffffffffffffffffffffffffffffffffffffffffffffffffffffff1916145b80610522575061052182610e33565b5b9050919050565b606060008054610538906124e2565b80601f0160208091040260200160405190810160405280929190818152602001828054610564906124e2565b80156105b15780601f10610586576101008083540402835291602001916105b1565b820191906000526020600020905b81548152906001019060200180831161059457829003601f168201915b5050505050905090565b60006105c682610e9d565b506105d082610f25565b9050919050565b6105e982826105e4610f62565b610f6a565b5050565b6040517f08c379a000000000000000000000000000000000000000000000000000000000815260040161061f9061255f565b60405180910390fd5b61064383838360405180602001604052806000815250610bdf565b505050565b6008602052806000526040600020600091509050806000015490806001015490806002018054610677906124e2565b80601f01602080910402602001604051908101604052809291908181526020018280546106a3906124e2565b80156106f05780601f106106c5576101008083540402835291602001916106f0565b820191906000526020600020905b8154815290600101906020018083116106d357829003601f168201915b5050505050908060030160009054906101000a900460ff16905084565b6009602052816000526040600020818154811061072957600080fd5b90600052602060002001600091509150505481565b600061074982610e9d565b9050919050565b60008073ffffffffffffffffffffffffffffffffffffffff168273ffffffffffffffffffffffffffffffffffffffff16036107c35760006040517f89c62b640000000000000000000000000000000000000000000000000000000081526004016107ba9190611f22565b60405180910390fd5b600360008373ffffffffffffffffffffffffffffffffffffffff1673ffffffffffffffffffffffffffffffffffffffff168152602001908152602001600020549050919050565b610812610f7c565b61081c6000611003565b565b6000610828610f7c565b600073ffffffffffffffffffffffffffffffffffffffff168473ffffffffffffffffffffffffffffffffffffffff1603610897576040517f08c379a000000000000000000000000000000000000000000000000000000000815260040161088e906125cb565b60405180910390fd5b600a60008573ffffffffffffffffffffffffffffffffffffffff1673ffffffffffffffffffffffffffffffffffffffff168152602001908152602001600020600084815260200190815260200160002060009054906101000a900460ff1615610935576040517f08c379a000000000000000000000000000000000000000000000000000000000815260040161092c90612637565b60405180910390fd5b6007600081548092919061094890612686565b91905055506000600754905061095e85826110c9565b60405180608001604052808581526020014281526020018481526020016001151581525060086000838152602001908152602001600020600082015181600001556020820151816001015560408201518160020190816109be919061287a565b5060608201518160030160006101000a81548160ff021916908315150217905550905050600960008673ffffffffffffffffffffffffffffffffffffffff1673ffffffffffffffffffffffffffffffffffffffff1681526020019081526020016000208490806001815401808255809150506001900390600052602060002001600090919091909150556001600a60008773ffffffffffffffffffffffffffffffffffffffff1673ffffffffffffffffffffffffffffffffffffffff168152602001908152602001600020600086815260200190815260200160002060006101000a81548160ff0219169083151502179055508473ffffffffffffffffffffffffffffffffffffffff16817fd6f1f55566b1199cea2597c8b49a85329b1b38db2ede9b8d06b786fbbac34e5f8642604051610afa92919061294c565b60405180910390a3809150509392505050565b6000600660009054906101000a900473ffffffffffffffffffffffffffffffffffffffff16905090565b606060018054610b46906124e2565b80601f0160208091040260200160405190810160405280929190818152602001828054610b72906124e2565b8015610bbf5780601f10610b9457610100808354040283529160200191610bbf565b820191906000526020600020905b815481529060010190602001808311610ba257829003601f168201915b5050505050905090565b610bdb610bd4610f62565b83836110e7565b5050565b6040517f08c379a0000000000000000000000000000000000000000000000000000000008152600401610c119061255f565b60405180910390fd5b600a6020528160005260406000206020528060005260406000206000915091509054906101000a900460ff1681565b6060610c5482610e9d565b506000610c5f611256565b90506000815111610c7f5760405180602001604052806000815250610caa565b80610c898461126d565b604051602001610c9a9291906129b1565b6040516020818303038152906040525b915050919050565b6000600560008473ffffffffffffffffffffffffffffffffffffffff1673ffffffffffffffffffffffffffffffffffffffff16815260200190815260200160002060008373ffffffffffffffffffffffffffffffffffffffff1673ffffffffffffffffffffffffffffffffffffffff16815260200190815260200160002060009054906101000a900460ff16905092915050565b610d4e610f7c565b60006008600083815260200190815260200160002060030160006101000a81548160ff021916908315150217905550807f8f9350bffaae26382a719a481304e27d1f8426ca5c70a087d43249960a4f15c160405160405180910390a250565b610db5610f7c565b600073ffffffffffffffffffffffffffffffffffffffff168173ffffffffffffffffffffffffffffffffffffffff1603610e275760006040517f1e4fbdf7000000000000000000000000000000000000000000000000000000008152600401610e1e9190611f22565b60405180910390fd5b610e3081611003565b50565b60007f01ffc9a7000000000000000000000000000000000000000000000000000000007bffffffffffffffffffffffffffffffffffffffffffffffffffffffff1916827bffffffffffffffffffffffffffffffffffffffffffffffffffffffff1916149050919050565b600080610ea98361133b565b9050600073ffffffffffffffffffffffffffffffffffffffff168173ffffffffffffffffffffffffffffffffffffffff1603610f1c57826040517f7e273289000000000000000000000000000000000000000000000000000000008152600401610f1391906120b8565b60405180910390fd5b80915050919050565b60006004600083815260200190815260200160002060009054906101000a900473ffffffffffffffffffffffffffffffffffffffff169050919050565b600033905090565b610f778383836001611378565b505050565b610f84610f62565b73ffffffffffffffffffffffffffffffffffffffff16610fa2610b0d565b73ffffffffffffffffffffffffffffffffffffffff161461100157610fc5610f62565b6040517f118cdaa7000000000000000000000000000000000000000000000000000000008152600401610ff89190611f22565b60405180910390fd5b565b6000600660009054906101000a900473ffffffffffffffffffffffffffffffffffffffff16905081600660006101000a81548173ffffffffffffffffffffffffffffffffffffffff021916908373ffffffffffffffffffffffffffffffffffffffff1602179055508173ffffffffffffffffffffffffffffffffffffffff168173ffffffffffffffffffffffffffffffffffffffff167f8be0079c531659141344cd1fd0a4f28419497f9722a3daafe3b4186f6b6457e060405160405180910390a35050565b6110e382826040518060200160405280600081525061153d565b5050565b600073ffffffffffffffffffffffffffffffffffffffff168273ffffffffffffffffffffffffffffffffffffffff160361115857816040517f5b08ba1800000000000000000000000000000000000000000000000000000000815260040161114f9190611f22565b60405180910390fd5b80600560008573ffffffffffffffffffffffffffffffffffffffff1673ffffffffffffffffffffffffffffffffffffffff16815260200190815260200160002060008473ffffffffffffffffffffffffffffffffffffffff1673ffffffffffffffffffffffffffffffffffffffff16815260200190815260200160002060006101000a81548160ff0219169083151502179055508173ffffffffffffffffffffffffffffffffffffffff168373ffffffffffffffffffffffffffffffffffffffff167f17307eab39ab6107e8899845ad3d59bd9653f200f220920489ca2b5937696c31836040516112499190611db1565b60405180910390a3505050565b606060405180602001604052806000815250905090565b60606000600161127c84611561565b01905060008167ffffffffffffffff81111561129b5761129a612109565b5b6040519080825280601f01601f1916602001820160405280156112cd5781602001600182028036833780820191505090505b509050600082602083010190505b600115611330578080600190039150507f3031323334353637383961626364656600000000000000000000000000000000600a86061a8153600a8581611324576113236129d5565b5b049450600085036112db575b819350505050919050565b60006002600083815260200190815260200160002060009054906101000a900473ffffffffffffffffffffffffffffffffffffffff169050919050565b80806113b15750600073ffffffffffffffffffffffffffffffffffffffff168273ffffffffffffffffffffffffffffffffffffffff1614155b156114e55760006113c184610e9d565b9050600073ffffffffffffffffffffffffffffffffffffffff168373ffffffffffffffffffffffffffffffffffffffff161415801561142c57508273ffffffffffffffffffffffffffffffffffffffff168173ffffffffffffffffffffffffffffffffffffffff1614155b801561143f575061143d8184610cb2565b155b1561148157826040517fa9fbf51f0000000000000000000000000000000000000000000000000000000081526004016114789190611f22565b60405180910390fd5b81156114e357838573ffffffffffffffffffffffffffffffffffffffff168273ffffffffffffffffffffffffffffffffffffffff167f8c5be1e5ebec7d5bd14f71427d1e84f3dd0314c0f7b2291e5b200ac8c7c3b92560405160405180910390a45b505b836004600085815260200190815260200160002060006101000a81548173ffffffffffffffffffffffffffffffffffffffff021916908373ffffffffffffffffffffffffffffffffffffffff16021790555050505050565b61154783836116b4565b61155c611552610f62565b60008585856117ad565b505050565b600080600090507a184f03e93ff9f4daa797ed6e38ed64bf6a1f01000000000000000083106115bf577a184f03e93ff9f4daa797ed6e38ed64bf6a1f01000000000000000083816115b5576115b46129d5565b5b0492506040810190505b6d04ee2d6d415b85acef810000000083106115fc576d04ee2d6d415b85acef810000000083816115f2576115f16129d5565b5b0492506020810190505b662386f26fc10000831061162b57662386f26fc100008381611621576116206129d5565b5b0492506010810190505b6305f5e1008310611654576305f5e100838161164a576116496129d5565b5b0492506008810190505b612710831061167957612710838161166f5761166e6129d5565b5b0492506004810190505b6064831061169c5760648381611692576116916129d5565b5b0492506002810190505b600a83106116ab576001810190505b80915050919050565b600073ffffffffffffffffffffffffffffffffffffffff168273ffffffffffffffffffffffffffffffffffffffff16036117265760006040517f64a0ae9200000000000000000000000000000000000000000000000000000000815260040161171d9190611f22565b60405180910390fd5b60006117348383600061195e565b9050600073ffffffffffffffffffffffffffffffffffffffff168173ffffffffffffffffffffffffffffffffffffffff16146117a85760006040517f73c6ac6e00000000000000000000000000000000000000000000000000000000815260040161179f9190611f22565b60405180910390fd5b505050565b60008373ffffffffffffffffffffffffffffffffffffffff163b1115611957578273ffffffffffffffffffffffffffffffffffffffff1663150b7a02868685856040518563ffffffff1660e01b815260040161180c9493929190612a59565b6020604051808303816000875af192505050801561184857506040513d601f19601f820116820180604052508101906118459190612aba565b60015b6118cc573d8060008114611878576040519150601f19603f3d011682016040523d82523d6000602084013e61187d565b606091505b5060008151036118c457836040517f64a0ae920000000000000000000000000000000000000000000000000000000081526004016118bb9190611f22565b60405180910390fd5b805160208201fd5b63150b7a0260e01b7bffffffffffffffffffffffffffffffffffffffffffffffffffffffff1916817bffffffffffffffffffffffffffffffffffffffffffffffffffffffff19161461195557836040517f64a0ae9200000000000000000000000000000000000000000000000000000000815260040161194c9190611f22565b60405180910390fd5b505b5050505050565b60008061196a8461133b565b9050600073ffffffffffffffffffffffffffffffffffffffff168373ffffffffffffffffffffffffffffffffffffffff16146119ac576119ab818486611b78565b5b600073ffffffffffffffffffffffffffffffffffffffff168173ffffffffffffffffffffffffffffffffffffffff1614611a3d576119ee600085600080611378565b6001600360008373ffffffffffffffffffffffffffffffffffffffff1673ffffffffffffffffffffffffffffffffffffffff168152602001908152602001600020600082825403925050819055505b600073ffffffffffffffffffffffffffffffffffffffff168573ffffffffffffffffffffffffffffffffffffffff1614611ac0576001600360008773ffffffffffffffffffffffffffffffffffffffff1673ffffffffffffffffffffffffffffffffffffffff168152602001908152602001600020600082825401925050819055505b846002600086815260200190815260200160002060006101000a81548173ffffffffffffffffffffffffffffffffffffffff021916908373ffffffffffffffffffffffffffffffffffffffff160217905550838573ffffffffffffffffffffffffffffffffffffffff168273ffffffffffffffffffffffffffffffffffffffff167fddf252ad1be2c89b69c2b068fc378daa952ba7f163c4a11628f55a4df523b3ef60405160405180910390a4809150509392505050565b611b83838383611c3c565b611c3757600073ffffffffffffffffffffffffffffffffffffffff168373ffffffffffffffffffffffffffffffffffffffff1603611bf857806040517f7e273289000000000000000000000000000000000000000000000000000000008152600401611bef91906120b8565b60405180910390fd5b81816040517f177e802f000000000000000000000000000000000000000000000000000000008152600401611c2e929190612ae7565b60405180910390fd5b505050565b60008073ffffffffffffffffffffffffffffffffffffffff168373ffffffffffffffffffffffffffffffffffffffff1614158015611cf457508273ffffffffffffffffffffffffffffffffffffffff168473ffffffffffffffffffffffffffffffffffffffff161480611cb55750611cb48484610cb2565b5b80611cf357508273ffffffffffffffffffffffffffffffffffffffff16611cdb83610f25565b73ffffffffffffffffffffffffffffffffffffffff16145b5b90509392505050565b6000604051905090565b600080fd5b600080fd5b60007fffffffff0000000000000000000000000000000000000000000000000000000082169050919050565b611d4681611d11565b8114611d5157600080fd5b50565b600081359050611d6381611d3d565b92915050565b600060208284031215611d7f57611d7e611d07565b5b6000611d8d84828501611d54565b91505092915050565b60008115159050919050565b611dab81611d96565b82525050565b6000602082019050611dc66000830184611da2565b92915050565b600081519050919050565b600082825260208201905092915050565b60005b83811015611e06578082015181840152602081019050611deb565b60008484015250505050565b6000601f19601f8301169050919050565b6000611e2e82611dcc565b611e388185611dd7565b9350611e48818560208601611de8565b611e5181611e12565b840191505092915050565b60006020820190508181036000830152611e768184611e23565b905092915050565b6000819050919050565b611e9181611e7e565b8114611e9c57600080fd5b50565b600081359050611eae81611e88565b92915050565b600060208284031215611eca57611ec9611d07565b5b6000611ed884828501611e9f565b91505092915050565b600073ffffffffffffffffffffffffffffffffffffffff82169050919050565b6000611f0c82611ee1565b9050919050565b611f1c81611f01565b82525050565b6000602082019050611f376000830184611f13565b92915050565b611f4681611f01565b8114611f5157600080fd5b50565b600081359050611f6381611f3d565b92915050565b60008060408385031215611f8057611f7f611d07565b5b6000611f8e85828601611f54565b9250506020611f9f85828601611e9f565b9150509250929050565b600080600060608486031215611fc257611fc1611d07565b5b6000611fd086828701611f54565b9350506020611fe186828701611f54565b9250506040611ff286828701611e9f565b9150509250925092565b6000819050919050565b61200f81611ffc565b82525050565b61201e81611e7e565b82525050565b60006080820190506120396000830187612006565b6120466020830186612015565b81810360408301526120588185611e23565b90506120676060830184611da2565b95945050505050565b60006020820190506120856000830184612006565b92915050565b6000602082840312156120a1576120a0611d07565b5b60006120af84828501611f54565b91505092915050565b60006020820190506120cd6000830184612015565b92915050565b6120dc81611ffc565b81146120e757600080fd5b50565b6000813590506120f9816120d3565b92915050565b600080fd5b600080fd5b7f4e487b7100000000000000000000000000000000000000000000000000000000600052604160045260246000fd5b61214182611e12565b810181811067ffffffffffffffff821117156121605761215f612109565b5b80604052505050565b6000612173611cfd565b905061217f8282612138565b919050565b600067ffffffffffffffff82111561219f5761219e612109565b5b6121a882611e12565b9050602081019050919050565b82818337600083830152505050565b60006121d76121d284612184565b612169565b9050828152602081018484840111156121f3576121f2612104565b5b6121fe8482856121b5565b509392505050565b600082601f83011261221b5761221a6120ff565b5b813561222b8482602086016121c4565b91505092915050565b60008060006060848603121561224d5761224c611d07565b5b600061225b86828701611f54565b935050602061226c868287016120ea565b925050604084013567ffffffffffffffff81111561228d5761228c611d0c565b5b61229986828701612206565b9150509250925092565b6122ac81611d96565b81146122b757600080fd5b50565b6000813590506122c9816122a3565b92915050565b600080604083850312156122e6576122e5611d07565b5b60006122f485828601611f54565b9250506020612305858286016122ba565b9150509250929050565b600067ffffffffffffffff82111561232a57612329612109565b5b61233382611e12565b9050602081019050919050565b600061235361234e8461230f565b612169565b90508281526020810184848401111561236f5761236e612104565b5b61237a8482856121b5565b509392505050565b600082601f830112612397576123966120ff565b5b81356123a7848260208601612340565b91505092915050565b600080600080608085870312156123ca576123c9611d07565b5b60006123d887828801611f54565b94505060206123e987828801611f54565b93505060406123fa87828801611e9f565b925050606085013567ffffffffffffffff81111561241b5761241a611d0c565b5b61242787828801612382565b91505092959194509250565b6000806040838503121561244a57612449611d07565b5b600061245885828601611f54565b9250506020612469858286016120ea565b9150509250929050565b6000806040838503121561248a57612489611d07565b5b600061249885828601611f54565b92505060206124a985828601611f54565b9150509250929050565b7f4e487b7100000000000000000000000000000000000000000000000000000000600052602260045260246000fd5b600060028204905060018216806124fa57607f821691505b60208210810361250d5761250c6124b3565b5b50919050565b7f504f415020697320536f756c626f756e64000000000000000000000000000000600082015250565b6000612549601183611dd7565b915061255482612513565b602082019050919050565b600060208201905081810360008301526125788161253c565b9050919050565b7f496e76616c69642077616c6c6574000000000000000000000000000000000000600082015250565b60006125b5600e83611dd7565b91506125c08261257f565b602082019050919050565b600060208201905081810360008301526125e4816125a8565b9050919050565b7f416c726561647920726563656976656420504f41500000000000000000000000600082015250565b6000612621601583611dd7565b915061262c826125eb565b602082019050919050565b6000602082019050818103600083015261265081612614565b9050919050565b7f4e487b7100000000000000000000000000000000000000000000000000000000600052601160045260246000fd5b600061269182611e7e565b91507fffffffffffffffffffffffffffffffffffffffffffffffffffffffffffffffff82036126c3576126c2612657565b5b600182019050919050565b60008190508160005260206000209050919050565b60006020601f8301049050919050565b600082821b905092915050565b6000600883026127307fffffffffffffffffffffffffffffffffffffffffffffffffffffffffffffffff826126f3565b61273a86836126f3565b95508019841693508086168417925050509392505050565b6000819050919050565b600061277761277261276d84611e7e565b612752565b611e7e565b9050919050565b6000819050919050565b6127918361275c565b6127a561279d8261277e565b848454612700565b825550505050565b600090565b6127ba6127ad565b6127c5818484612788565b505050565b5b818110156127e9576127de6000826127b2565b6001810190506127cb565b5050565b601f82111561282e576127ff816126ce565b612808846126e3565b81016020851015612817578190505b61282b612823856126e3565b8301826127ca565b50505b505050565b600082821c905092915050565b600061285160001984600802612833565b1980831691505092915050565b600061286a8383612840565b9150826002028217905092915050565b61288382611dcc565b67ffffffffffffffff81111561289c5761289b612109565b5b6128a682546124e2565b6128b18282856127ed565b600060209050601f8311600181146128e457600084156128d2578287015190505b6128dc858261285e565b865550612944565b601f1984166128f2866126ce565b60005b8281101561291a578489015182556001820191506020850194506020810190506128f5565b868310156129375784890151612933601f891682612840565b8355505b6001600288020188555050505b505050505050565b60006040820190506129616000830185612006565b61296e6020830184612015565b9392505050565b600081905092915050565b600061298b82611dcc565b6129958185612975565b93506129a5818560208601611de8565b80840191505092915050565b60006129bd8285612980565b91506129c98284612980565b91508190509392505050565b7f4e487b7100000000000000000000000000000000000000000000000000000000600052601260045260246000fd5b600081519050919050565b600082825260208201905092915050565b6000612a2b82612a04565b612a358185612a0f565b9350612a45818560208601611de8565b612a4e81611e12565b840191505092915050565b6000608082019050612a6e6000830187611f13565b612a7b6020830186611f13565b612a886040830185612015565b8181036060830152612a9a8184612a20565b905095945050505050565b600081519050612ab481611d3d565b92915050565b600060208284031215612ad057612acf611d07565b5b6000612ade84828501612aa5565b91505092915050565b6000604082019050612afc6000830185611f13565b612b096020830184612015565b939250505056fea26469706673582212205c98062c5039fa00887048ff45171c5add8520efc1d26cfb4198a5fc6ef3a68d64736f6c63430008140033",
  "linkReferences": {},
  "deployedLinkReferences": {}
}